{
  "contractName": "FarmToken",
  "abi": [
    {
      "inputs": [
        {
          "internalType": "address",
          "name": "_token",
          "type": "address"
        }
      ],
      "stateMutability": "nonpayable",
      "type": "constructor"
    },
    {
      "anonymous": false,
      "inputs": [
        {
          "indexed": true,
          "internalType": "address",
          "name": "owner",
          "type": "address"
        },
        {
          "indexed": true,
          "internalType": "address",
          "name": "spender",
          "type": "address"
        },
        {
          "indexed": false,
          "internalType": "uint256",
          "name": "value",
          "type": "uint256"
        }
      ],
      "name": "Approval",
      "type": "event"
    },
    {
      "anonymous": false,
      "inputs": [
        {
          "indexed": true,
          "internalType": "address",
          "name": "from",
          "type": "address"
        },
        {
          "indexed": true,
          "internalType": "address",
          "name": "to",
          "type": "address"
        },
        {
          "indexed": false,
          "internalType": "uint256",
          "name": "value",
          "type": "uint256"
        }
      ],
      "name": "Transfer",
      "type": "event"
    },
    {
      "inputs": [
        {
          "internalType": "address",
          "name": "owner",
          "type": "address"
        },
        {
          "internalType": "address",
          "name": "spender",
          "type": "address"
        }
      ],
      "name": "allowance",
      "outputs": [
        {
          "internalType": "uint256",
          "name": "",
          "type": "uint256"
        }
      ],
      "stateMutability": "view",
      "type": "function",
      "constant": true
    },
    {
      "inputs": [
        {
          "internalType": "address",
          "name": "spender",
          "type": "address"
        },
        {
          "internalType": "uint256",
          "name": "amount",
          "type": "uint256"
        }
      ],
      "name": "approve",
      "outputs": [
        {
          "internalType": "bool",
          "name": "",
          "type": "bool"
        }
      ],
      "stateMutability": "nonpayable",
      "type": "function"
    },
    {
      "inputs": [
        {
          "internalType": "address",
          "name": "account",
          "type": "address"
        }
      ],
      "name": "balanceOf",
      "outputs": [
        {
          "internalType": "uint256",
          "name": "",
          "type": "uint256"
        }
      ],
      "stateMutability": "view",
      "type": "function",
      "constant": true
    },
    {
      "inputs": [],
      "name": "decimals",
      "outputs": [
        {
          "internalType": "uint8",
          "name": "",
          "type": "uint8"
        }
      ],
      "stateMutability": "view",
      "type": "function",
      "constant": true
    },
    {
      "inputs": [
        {
          "internalType": "address",
          "name": "spender",
          "type": "address"
        },
        {
          "internalType": "uint256",
          "name": "subtractedValue",
          "type": "uint256"
        }
      ],
      "name": "decreaseAllowance",
      "outputs": [
        {
          "internalType": "bool",
          "name": "",
          "type": "bool"
        }
      ],
      "stateMutability": "nonpayable",
      "type": "function"
    },
    {
      "inputs": [
        {
          "internalType": "address",
          "name": "spender",
          "type": "address"
        },
        {
          "internalType": "uint256",
          "name": "addedValue",
          "type": "uint256"
        }
      ],
      "name": "increaseAllowance",
      "outputs": [
        {
          "internalType": "bool",
          "name": "",
          "type": "bool"
        }
      ],
      "stateMutability": "nonpayable",
      "type": "function"
    },
    {
      "inputs": [],
      "name": "name",
      "outputs": [
        {
          "internalType": "string",
          "name": "",
          "type": "string"
        }
      ],
      "stateMutability": "view",
      "type": "function",
      "constant": true
    },
    {
      "inputs": [],
      "name": "symbol",
      "outputs": [
        {
          "internalType": "string",
          "name": "",
          "type": "string"
        }
      ],
      "stateMutability": "view",
      "type": "function",
      "constant": true
    },
    {
      "inputs": [],
      "name": "token",
      "outputs": [
        {
          "internalType": "contract IERC20",
          "name": "",
          "type": "address"
        }
      ],
      "stateMutability": "view",
      "type": "function",
      "constant": true
    },
    {
      "inputs": [],
      "name": "totalSupply",
      "outputs": [
        {
          "internalType": "uint256",
          "name": "",
          "type": "uint256"
        }
      ],
      "stateMutability": "view",
      "type": "function",
      "constant": true
    },
    {
      "inputs": [
        {
          "internalType": "address",
          "name": "recipient",
          "type": "address"
        },
        {
          "internalType": "uint256",
          "name": "amount",
          "type": "uint256"
        }
      ],
      "name": "transfer",
      "outputs": [
        {
          "internalType": "bool",
          "name": "",
          "type": "bool"
        }
      ],
      "stateMutability": "nonpayable",
      "type": "function"
    },
    {
      "inputs": [
        {
          "internalType": "address",
          "name": "sender",
          "type": "address"
        },
        {
          "internalType": "address",
          "name": "recipient",
          "type": "address"
        },
        {
          "internalType": "uint256",
          "name": "amount",
          "type": "uint256"
        }
      ],
      "name": "transferFrom",
      "outputs": [
        {
          "internalType": "bool",
          "name": "",
          "type": "bool"
        }
      ],
      "stateMutability": "nonpayable",
      "type": "function"
    },
    {
      "inputs": [],
      "name": "balance",
      "outputs": [
        {
          "internalType": "uint256",
          "name": "",
          "type": "uint256"
        }
      ],
      "stateMutability": "view",
      "type": "function",
      "constant": true
    },
    {
      "inputs": [
        {
          "internalType": "uint256",
          "name": "_amount",
          "type": "uint256"
        }
      ],
      "name": "deposit",
      "outputs": [],
      "stateMutability": "nonpayable",
      "type": "function"
    },
    {
      "inputs": [
        {
          "internalType": "uint256",
          "name": "_amount",
          "type": "uint256"
        }
      ],
      "name": "withdraw",
      "outputs": [],
      "stateMutability": "nonpayable",
      "type": "function"
    }
  ],
  "bytecode": "0x60806040523480156200001157600080fd5b50604051620025a9380380620025a9833981810160405281019062000037919062000239565b6040518060400160405280600981526020017f4661726d546f6b656e00000000000000000000000000000000000000000000008152506040518060400160405280600381526020017f46524d00000000000000000000000000000000000000000000000000000000008152508160039080519060200190620000bb9291906200011f565b508060049080519060200190620000d49291906200011f565b50505080600560006101000a81548173ffffffffffffffffffffffffffffffffffffffff021916908373ffffffffffffffffffffffffffffffffffffffff16021790555050620002d0565b8280546200012d906200029a565b90600052602060002090601f0160209004810192826200015157600085556200019d565b82601f106200016c57805160ff19168380011785556200019d565b828001600101855582156200019d579182015b828111156200019c5782518255916020019190600101906200017f565b5b509050620001ac9190620001b0565b5090565b5b80821115620001cb576000816000905550600101620001b1565b5090565b600080fd5b600073ffffffffffffffffffffffffffffffffffffffff82169050919050565b60006200020182620001d4565b9050919050565b6200021381620001f4565b81146200021f57600080fd5b50565b600081519050620002338162000208565b92915050565b600060208284031215620002525762000251620001cf565b5b6000620002628482850162000222565b91505092915050565b7f4e487b7100000000000000000000000000000000000000000000000000000000600052602260045260246000fd5b60006002820490506001821680620002b357607f821691505b60208210811415620002ca57620002c96200026b565b5b50919050565b6122c980620002e06000396000f3fe608060405234801561001057600080fd5b50600436106100f55760003560e01c806370a0823111610097578063b69ef8a811610066578063b69ef8a8146102ae578063b6b55f25146102cc578063dd62ed3e146102e8578063fc0c546a14610318576100f5565b806370a082311461020057806395d89b4114610230578063a457c2d71461024e578063a9059cbb1461027e576100f5565b806323b872dd116100d357806323b872dd146101665780632e1a7d4d14610196578063313ce567146101b257806339509351146101d0576100f5565b806306fdde03146100fa578063095ea7b31461011857806318160ddd14610148575b600080fd5b610102610336565b60405161010f9190611573565b60405180910390f35b610132600480360381019061012d919061162e565b6103c8565b60405161013f9190611689565b60405180910390f35b6101506103e6565b60405161015d91906116b3565b60405180910390f35b610180600480360381019061017b91906116ce565b6103f0565b60405161018d9190611689565b60405180910390f35b6101b060048036038101906101ab9190611721565b6104e8565b005b6101ba610542565b6040516101c7919061176a565b60405180910390f35b6101ea60048036038101906101e5919061162e565b61054b565b6040516101f79190611689565b60405180910390f35b61021a60048036038101906102159190611785565b6105f7565b60405161022791906116b3565b60405180910390f35b61023861063f565b6040516102459190611573565b60405180910390f35b6102686004803603810190610263919061162e565b6106d1565b6040516102759190611689565b60405180910390f35b6102986004803603810190610293919061162e565b6107bc565b6040516102a59190611689565b60405180910390f35b6102b66107da565b6040516102c391906116b3565b60405180910390f35b6102e660048036038101906102e19190611721565b61087d565b005b61030260048036038101906102fd91906117b2565b61091c565b60405161030f91906116b3565b60405180910390f35b6103206109a3565b60405161032d9190611851565b60405180910390f35b6060600380546103459061189b565b80601f01602080910402602001604051908101604052809291908181526020018280546103719061189b565b80156103be5780601f10610393576101008083540402835291602001916103be565b820191906000526020600020905b8154815290600101906020018083116103a157829003601f168201915b5050505050905090565b60006103dc6103d56109c9565b84846109d1565b6001905092915050565b6000600254905090565b60006103fd848484610b9c565b6000600160008673ffffffffffffffffffffffffffffffffffffffff1673ffffffffffffffffffffffffffffffffffffffff16815260200190815260200160002060006104486109c9565b73ffffffffffffffffffffffffffffffffffffffff1673ffffffffffffffffffffffffffffffffffffffff168152602001908152602001600020549050828110156104c8576040517f08c379a00000000000000000000000000000000000000000000000000000000081526004016104bf9061193f565b60405180910390fd5b6104dc856104d46109c9565b8584036109d1565b60019150509392505050565b6104f23382610e1d565b61053f3382600560009054906101000a900473ffffffffffffffffffffffffffffffffffffffff1673ffffffffffffffffffffffffffffffffffffffff16610ff49092919063ffffffff16565b50565b60006012905090565b60006105ed6105586109c9565b8484600160006105666109c9565b73ffffffffffffffffffffffffffffffffffffffff1673ffffffffffffffffffffffffffffffffffffffff16815260200190815260200160002060008873ffffffffffffffffffffffffffffffffffffffff1673ffffffffffffffffffffffffffffffffffffffff168152602001908152602001600020546105e8919061198e565b6109d1565b6001905092915050565b60008060008373ffffffffffffffffffffffffffffffffffffffff1673ffffffffffffffffffffffffffffffffffffffff168152602001908152602001600020549050919050565b60606004805461064e9061189b565b80601f016020809104026020016040519081016040528092919081815260200182805461067a9061189b565b80156106c75780601f1061069c576101008083540402835291602001916106c7565b820191906000526020600020905b8154815290600101906020018083116106aa57829003601f168201915b5050505050905090565b600080600160006106e06109c9565b73ffffffffffffffffffffffffffffffffffffffff1673ffffffffffffffffffffffffffffffffffffffff16815260200190815260200160002060008573ffffffffffffffffffffffffffffffffffffffff1673ffffffffffffffffffffffffffffffffffffffff1681526020019081526020016000205490508281101561079d576040517f08c379a000000000000000000000000000000000000000000000000000000000815260040161079490611a56565b60405180910390fd5b6107b16107a86109c9565b858584036109d1565b600191505092915050565b60006107d06107c96109c9565b8484610b9c565b6001905092915050565b6000600560009054906101000a900473ffffffffffffffffffffffffffffffffffffffff1673ffffffffffffffffffffffffffffffffffffffff166370a08231306040518263ffffffff1660e01b81526004016108379190611a85565b602060405180830381865afa158015610854573d6000803e3d6000fd5b505050506040513d601f19601f820116820180604052508101906108789190611ab5565b905090565b600081116108c0576040517f08c379a00000000000000000000000000000000000000000000000000000000081526004016108b790611b2e565b60405180910390fd5b61090f333083600560009054906101000a900473ffffffffffffffffffffffffffffffffffffffff1673ffffffffffffffffffffffffffffffffffffffff1661107a909392919063ffffffff16565b6109193382611103565b50565b6000600160008473ffffffffffffffffffffffffffffffffffffffff1673ffffffffffffffffffffffffffffffffffffffff16815260200190815260200160002060008373ffffffffffffffffffffffffffffffffffffffff1673ffffffffffffffffffffffffffffffffffffffff16815260200190815260200160002054905092915050565b600560009054906101000a900473ffffffffffffffffffffffffffffffffffffffff1681565b600033905090565b600073ffffffffffffffffffffffffffffffffffffffff168373ffffffffffffffffffffffffffffffffffffffff161415610a41576040517f08c379a0000000000000000000000000000000000000000000000000000000008152600401610a3890611bc0565b60405180910390fd5b600073ffffffffffffffffffffffffffffffffffffffff168273ffffffffffffffffffffffffffffffffffffffff161415610ab1576040517f08c379a0000000000000000000000000000000000000000000000000000000008152600401610aa890611c52565b60405180910390fd5b80600160008573ffffffffffffffffffffffffffffffffffffffff1673ffffffffffffffffffffffffffffffffffffffff16815260200190815260200160002060008473ffffffffffffffffffffffffffffffffffffffff1673ffffffffffffffffffffffffffffffffffffffff168152602001908152602001600020819055508173ffffffffffffffffffffffffffffffffffffffff168373ffffffffffffffffffffffffffffffffffffffff167f8c5be1e5ebec7d5bd14f71427d1e84f3dd0314c0f7b2291e5b200ac8c7c3b92583604051610b8f91906116b3565b60405180910390a3505050565b600073ffffffffffffffffffffffffffffffffffffffff168373ffffffffffffffffffffffffffffffffffffffff161415610c0c576040517f08c379a0000000000000000000000000000000000000000000000000000000008152600401610c0390611ce4565b60405180910390fd5b600073ffffffffffffffffffffffffffffffffffffffff168273ffffffffffffffffffffffffffffffffffffffff161415610c7c576040517f08c379a0000000000000000000000000000000000000000000000000000000008152600401610c7390611d76565b60405180910390fd5b610c87838383611263565b60008060008573ffffffffffffffffffffffffffffffffffffffff1673ffffffffffffffffffffffffffffffffffffffff16815260200190815260200160002054905081811015610d0d576040517f08c379a0000000000000000000000000000000000000000000000000000000008152600401610d0490611e08565b60405180910390fd5b8181036000808673ffffffffffffffffffffffffffffffffffffffff1673ffffffffffffffffffffffffffffffffffffffff16815260200190815260200160002081905550816000808573ffffffffffffffffffffffffffffffffffffffff1673ffffffffffffffffffffffffffffffffffffffff1681526020019081526020016000206000828254610da0919061198e565b925050819055508273ffffffffffffffffffffffffffffffffffffffff168473ffffffffffffffffffffffffffffffffffffffff167fddf252ad1be2c89b69c2b068fc378daa952ba7f163c4a11628f55a4df523b3ef84604051610e0491906116b3565b60405180910390a3610e17848484611268565b50505050565b600073ffffffffffffffffffffffffffffffffffffffff168273ffffffffffffffffffffffffffffffffffffffff161415610e8d576040517f08c379a0000000000000000000000000000000000000000000000000000000008152600401610e8490611e9a565b60405180910390fd5b610e9982600083611263565b60008060008473ffffffffffffffffffffffffffffffffffffffff1673ffffffffffffffffffffffffffffffffffffffff16815260200190815260200160002054905081811015610f1f576040517f08c379a0000000000000000000000000000000000000000000000000000000008152600401610f1690611f2c565b60405180910390fd5b8181036000808573ffffffffffffffffffffffffffffffffffffffff1673ffffffffffffffffffffffffffffffffffffffff168152602001908152602001600020819055508160026000828254610f769190611f4c565b92505081905550600073ffffffffffffffffffffffffffffffffffffffff168373ffffffffffffffffffffffffffffffffffffffff167fddf252ad1be2c89b69c2b068fc378daa952ba7f163c4a11628f55a4df523b3ef84604051610fdb91906116b3565b60405180910390a3610fef83600084611268565b505050565b6110758363a9059cbb60e01b8484604051602401611013929190611f80565b604051602081830303815290604052907bffffffffffffffffffffffffffffffffffffffffffffffffffffffff19166020820180517bffffffffffffffffffffffffffffffffffffffffffffffffffffffff838183161783525050505061126d565b505050565b6110fd846323b872dd60e01b85858560405160240161109b93929190611fa9565b604051602081830303815290604052907bffffffffffffffffffffffffffffffffffffffffffffffffffffffff19166020820180517bffffffffffffffffffffffffffffffffffffffffffffffffffffffff838183161783525050505061126d565b50505050565b600073ffffffffffffffffffffffffffffffffffffffff168273ffffffffffffffffffffffffffffffffffffffff161415611173576040517f08c379a000000000000000000000000000000000000000000000000000000000815260040161116a9061202c565b60405180910390fd5b61117f60008383611263565b8060026000828254611191919061198e565b92505081905550806000808473ffffffffffffffffffffffffffffffffffffffff1673ffffffffffffffffffffffffffffffffffffffff16815260200190815260200160002060008282546111e6919061198e565b925050819055508173ffffffffffffffffffffffffffffffffffffffff16600073ffffffffffffffffffffffffffffffffffffffff167fddf252ad1be2c89b69c2b068fc378daa952ba7f163c4a11628f55a4df523b3ef8360405161124b91906116b3565b60405180910390a361125f60008383611268565b5050565b505050565b505050565b60006112cf826040518060400160405280602081526020017f5361666545524332303a206c6f772d6c6576656c2063616c6c206661696c65648152508573ffffffffffffffffffffffffffffffffffffffff166113349092919063ffffffff16565b905060008151111561132f57808060200190518101906112ef9190612078565b61132e576040517f08c379a000000000000000000000000000000000000000000000000000000000815260040161132590612117565b60405180910390fd5b5b505050565b6060611343848460008561134c565b90509392505050565b606082471015611391576040517f08c379a0000000000000000000000000000000000000000000000000000000008152600401611388906121a9565b60405180910390fd5b61139a85611460565b6113d9576040517f08c379a00000000000000000000000000000000000000000000000000000000081526004016113d090612215565b60405180910390fd5b6000808673ffffffffffffffffffffffffffffffffffffffff168587604051611402919061227c565b60006040518083038185875af1925050503d806000811461143f576040519150601f19603f3d011682016040523d82523d6000602084013e611444565b606091505b5091509150611454828286611473565b92505050949350505050565b600080823b905060008111915050919050565b60608315611483578290506114d3565b6000835111156114965782518084602001fd5b816040517f08c379a00000000000000000000000000000000000000000000000000000000081526004016114ca9190611573565b60405180910390fd5b9392505050565b600081519050919050565b600082825260208201905092915050565b60005b838110156115145780820151818401526020810190506114f9565b83811115611523576000848401525b50505050565b6000601f19601f8301169050919050565b6000611545826114da565b61154f81856114e5565b935061155f8185602086016114f6565b61156881611529565b840191505092915050565b6000602082019050818103600083015261158d818461153a565b905092915050565b600080fd5b600073ffffffffffffffffffffffffffffffffffffffff82169050919050565b60006115c58261159a565b9050919050565b6115d5816115ba565b81146115e057600080fd5b50565b6000813590506115f2816115cc565b92915050565b6000819050919050565b61160b816115f8565b811461161657600080fd5b50565b60008135905061162881611602565b92915050565b6000806040838503121561164557611644611595565b5b6000611653858286016115e3565b925050602061166485828601611619565b9150509250929050565b60008115159050919050565b6116838161166e565b82525050565b600060208201905061169e600083018461167a565b92915050565b6116ad816115f8565b82525050565b60006020820190506116c860008301846116a4565b92915050565b6000806000606084860312156116e7576116e6611595565b5b60006116f5868287016115e3565b9350506020611706868287016115e3565b925050604061171786828701611619565b9150509250925092565b60006020828403121561173757611736611595565b5b600061174584828501611619565b91505092915050565b600060ff82169050919050565b6117648161174e565b82525050565b600060208201905061177f600083018461175b565b92915050565b60006020828403121561179b5761179a611595565b5b60006117a9848285016115e3565b91505092915050565b600080604083850312156117c9576117c8611595565b5b60006117d7858286016115e3565b92505060206117e8858286016115e3565b9150509250929050565b6000819050919050565b600061181761181261180d8461159a565b6117f2565b61159a565b9050919050565b6000611829826117fc565b9050919050565b600061183b8261181e565b9050919050565b61184b81611830565b82525050565b60006020820190506118666000830184611842565b92915050565b7f4e487b7100000000000000000000000000000000000000000000000000000000600052602260045260246000fd5b600060028204905060018216806118b357607f821691505b602082108114156118c7576118c661186c565b5b50919050565b7f45524332303a207472616e7366657220616d6f756e742065786365656473206160008201527f6c6c6f77616e6365000000000000000000000000000000000000000000000000602082015250565b60006119296028836114e5565b9150611934826118cd565b604082019050919050565b600060208201905081810360008301526119588161191c565b9050919050565b7f4e487b7100000000000000000000000000000000000000000000000000000000600052601160045260246000fd5b6000611999826115f8565b91506119a4836115f8565b9250827fffffffffffffffffffffffffffffffffffffffffffffffffffffffffffffffff038211156119d9576119d861195f565b5b828201905092915050565b7f45524332303a2064656372656173656420616c6c6f77616e63652062656c6f7760008201527f207a65726f000000000000000000000000000000000000000000000000000000602082015250565b6000611a406025836114e5565b9150611a4b826119e4565b604082019050919050565b60006020820190508181036000830152611a6f81611a33565b9050919050565b611a7f816115ba565b82525050565b6000602082019050611a9a6000830184611a76565b92915050565b600081519050611aaf81611602565b92915050565b600060208284031215611acb57611aca611595565b5b6000611ad984828501611aa0565b91505092915050565b7f616d6f756e742063616e6e6f7420626520300000000000000000000000000000600082015250565b6000611b186012836114e5565b9150611b2382611ae2565b602082019050919050565b60006020820190508181036000830152611b4781611b0b565b9050919050565b7f45524332303a20617070726f76652066726f6d20746865207a65726f2061646460008201527f7265737300000000000000000000000000000000000000000000000000000000602082015250565b6000611baa6024836114e5565b9150611bb582611b4e565b604082019050919050565b60006020820190508181036000830152611bd981611b9d565b9050919050565b7f45524332303a20617070726f766520746f20746865207a65726f20616464726560008201527f7373000000000000000000000000000000000000000000000000000000000000602082015250565b6000611c3c6022836114e5565b9150611c4782611be0565b604082019050919050565b60006020820190508181036000830152611c6b81611c2f565b9050919050565b7f45524332303a207472616e736665722066726f6d20746865207a65726f20616460008201527f6472657373000000000000000000000000000000000000000000000000000000602082015250565b6000611cce6025836114e5565b9150611cd982611c72565b604082019050919050565b60006020820190508181036000830152611cfd81611cc1565b9050919050565b7f45524332303a207472616e7366657220746f20746865207a65726f206164647260008201527f6573730000000000000000000000000000000000000000000000000000000000602082015250565b6000611d606023836114e5565b9150611d6b82611d04565b604082019050919050565b60006020820190508181036000830152611d8f81611d53565b9050919050565b7f45524332303a207472616e7366657220616d6f756e742065786365656473206260008201527f616c616e63650000000000000000000000000000000000000000000000000000602082015250565b6000611df26026836114e5565b9150611dfd82611d96565b604082019050919050565b60006020820190508181036000830152611e2181611de5565b9050919050565b7f45524332303a206275726e2066726f6d20746865207a65726f2061646472657360008201527f7300000000000000000000000000000000000000000000000000000000000000602082015250565b6000611e846021836114e5565b9150611e8f82611e28565b604082019050919050565b60006020820190508181036000830152611eb381611e77565b9050919050565b7f45524332303a206275726e20616d6f756e7420657863656564732062616c616e60008201527f6365000000000000000000000000000000000000000000000000000000000000602082015250565b6000611f166022836114e5565b9150611f2182611eba565b604082019050919050565b60006020820190508181036000830152611f4581611f09565b9050919050565b6000611f57826115f8565b9150611f62836115f8565b925082821015611f7557611f7461195f565b5b828203905092915050565b6000604082019050611f956000830185611a76565b611fa260208301846116a4565b9392505050565b6000606082019050611fbe6000830186611a76565b611fcb6020830185611a76565b611fd860408301846116a4565b949350505050565b7f45524332303a206d696e7420746f20746865207a65726f206164647265737300600082015250565b6000612016601f836114e5565b915061202182611fe0565b602082019050919050565b6000602082019050818103600083015261204581612009565b9050919050565b6120558161166e565b811461206057600080fd5b50565b6000815190506120728161204c565b92915050565b60006020828403121561208e5761208d611595565b5b600061209c84828501612063565b91505092915050565b7f5361666545524332303a204552433230206f7065726174696f6e20646964206e60008201527f6f74207375636365656400000000000000000000000000000000000000000000602082015250565b6000612101602a836114e5565b915061210c826120a5565b604082019050919050565b60006020820190508181036000830152612130816120f4565b9050919050565b7f416464726573733a20696e73756666696369656e742062616c616e636520666f60008201527f722063616c6c0000000000000000000000000000000000000000000000000000602082015250565b60006121936026836114e5565b915061219e82612137565b604082019050919050565b600060208201905081810360008301526121c281612186565b9050919050565b7f416464726573733a2063616c6c20746f206e6f6e2d636f6e7472616374000000600082015250565b60006121ff601d836114e5565b915061220a826121c9565b602082019050919050565b6000602082019050818103600083015261222e816121f2565b9050919050565b600081519050919050565b600081905092915050565b600061225682612235565b6122608185612240565b93506122708185602086016114f6565b80840191505092915050565b6000612288828461224b565b91508190509291505056fea2646970667358221220192c9e9fe2577bbd2d22906cdaab63deba4618465760c87acbd255032fb1600e64736f6c634300080b0033",
  "immutableReferences": {},
  "source": "// SPDX-License-Identifier: MIT\npragma solidity ^0.8.11;\n\nimport \"@openzeppelin/contracts/token/ERC20/IERC20.sol\";\nimport \"@openzeppelin/contracts/utils/Address.sol\";\nimport \"@openzeppelin/contracts/token/ERC20/utils/SafeERC20.sol\";\nimport \"@openzeppelin/contracts/token/ERC20/ERC20.sol\";\n\ncontract FarmToken is ERC20 {\n    using Address for address;\n    using SafeERC20 for IERC20;\n\n    IERC20 public token;\n\n    constructor(address _token) public ERC20(\"FarmToken\", \"FRM\") {\n        token = IERC20(_token);\n    }\n\n    function balance() public view returns (uint256) {\n        return token.balanceOf(address(this));\n    }\n\n    function deposit(uint256 _amount) public {\n        // Amount must be greater than zero\n        require(_amount > 0, \"amount cannot be 0\");\n\n        // Transfer PandaTokens to smart contract\n        token.safeTransferFrom(msg.sender, address(this), _amount);\n\n        // Mint FarmToken to msg sender\n        _mint(msg.sender, _amount);\n    }\n\n    function withdraw(uint256 _amount) public {\n        // Burn FarmTokens from msg sender\n        _burn(msg.sender, _amount);\n\n        // Transfer PandaTokens from this smart contract to msg sender\n        token.safeTransfer(msg.sender, _amount);\n    }\n}\n",
  "sourcePath": "/workspaces/learn-dapps/defi-app/contracts/FarmToken.sol",
  "compiler": {
    "name": "solc",
    "version": "0.8.11+commit.d7f03943.Emscripten.clang"
  },
  "schemaVersion": "3.4.4",
  "updatedAt": "2022-01-25T09:07:12.118Z",
  "networkType": "ethereum",
  "devdoc": {
    "kind": "dev",
    "methods": {
      "allowance(address,address)": {
        "details": "See {IERC20-allowance}."
      },
      "approve(address,uint256)": {
        "details": "See {IERC20-approve}. Requirements: - `spender` cannot be the zero address."
      },
      "balanceOf(address)": {
        "details": "See {IERC20-balanceOf}."
      },
      "decimals()": {
        "details": "Returns the number of decimals used to get its user representation. For example, if `decimals` equals `2`, a balance of `505` tokens should be displayed to a user as `5.05` (`505 / 10 ** 2`). Tokens usually opt for a value of 18, imitating the relationship between Ether and Wei. This is the value {ERC20} uses, unless this function is overridden; NOTE: This information is only used for _display_ purposes: it in no way affects any of the arithmetic of the contract, including {IERC20-balanceOf} and {IERC20-transfer}."
      },
      "decreaseAllowance(address,uint256)": {
        "details": "Atomically decreases the allowance granted to `spender` by the caller. This is an alternative to {approve} that can be used as a mitigation for problems described in {IERC20-approve}. Emits an {Approval} event indicating the updated allowance. Requirements: - `spender` cannot be the zero address. - `spender` must have allowance for the caller of at least `subtractedValue`."
      },
      "increaseAllowance(address,uint256)": {
        "details": "Atomically increases the allowance granted to `spender` by the caller. This is an alternative to {approve} that can be used as a mitigation for problems described in {IERC20-approve}. Emits an {Approval} event indicating the updated allowance. Requirements: - `spender` cannot be the zero address."
      },
      "name()": {
        "details": "Returns the name of the token."
      },
      "symbol()": {
        "details": "Returns the symbol of the token, usually a shorter version of the name."
      },
      "totalSupply()": {
        "details": "See {IERC20-totalSupply}."
      },
      "transfer(address,uint256)": {
        "details": "See {IERC20-transfer}. Requirements: - `recipient` cannot be the zero address. - the caller must have a balance of at least `amount`."
      },
      "transferFrom(address,address,uint256)": {
        "details": "See {IERC20-transferFrom}. Emits an {Approval} event indicating the updated allowance. This is not required by the EIP. See the note at the beginning of {ERC20}. Requirements: - `sender` and `recipient` cannot be the zero address. - `sender` must have a balance of at least `amount`. - the caller must have allowance for ``sender``'s tokens of at least `amount`."
      }
    },
    "version": 1
  },
  "userdoc": {
    "kind": "user",
    "methods": {},
    "version": 1
  }
}